:020000040800F2
:1000000020130020F5350008050B0008070B000839
:100010000B0B00080F0B0008130B0008000000007A
:10002000000000000000000000000000170B0008A6
:10003000190B0008000000001B0B00081D0B000836
:100040000F3600080F3600080F3600080F3600087C
:100050000F3600080F3600080F3600080F3600086C
:100060000F3600080F3600080F3600080F3600085C
:100070000F3600080F3600080F3600080F3600084C
:100080000F3600080F3600080F3600080F3600083C
:100090000F3600080F3600080F3600080F3600082C
:1000A0000F3600080F3600080F3600080F3600081C
:1000B0000F3600088F0E0008870D00080F36000865
:1000C0000F3600080F3600080F3600080F360008FC
:1000D0000F360008453500080F3600080F360008B7
:1000E0000F3600080F3600080F3600080F360008DC
:1000F0000F3600080F3600080F3600080F360008CC
:100100000F3600080F3600080F3600080F360008BB
:100110000F3600080F3600080F3600080F360008AB
:100120000F3600080F3600080F3600080F3600089B
:10013000DFF810D006F012FA00480047BB080008AC
:10014000AFF30080201300202DE9F041FE4F002680
:10015000002500243846007808B9BDE8F081FA4847
:1001600001F05EFE054615B9F8A006F03FFCFDA1C2
:10017000284602F0EBF80446B4B10126A08A000A32
:10018000F9490870207D4870F8480068F84908600F
:10019000F649606908600422F349F64800F013FF4D
:1001A000F5A0616906F022FCF8A1284602F0CEF81D
:1001B0000446ECB10126A08A000AEB490870207DB4
:1001C0004870F6496069086008460068002805DD47
:1001D0000020F34908600120F24908600422E24946
:1001E000E448001D00F0EFFEEFA0616906F0FEFBA1
:1001F000F4A1284602F0AAF80446FCB10126A08A20
:10020000F34908800846008818B10846008801288C
:1002100011D10020E24908600120E249086004226F
:10022000EB49D448083000F0CEFEE9480188E9A047
:1002300006F0DCFB02E0EDA006F0D8FBF2A12846B8
:1002400002F084F80446F4B10126A08AF04908803F
:1002500008460088012813DB0846008802280FDCC6
:100260000020C1490870207D48700122C1480C302F
:1002700000F0A9FEE6480188E6A006F0B7FB02E020
:10028000E9A006F0B3FBEEA1284602F05FF80446B1
:10029000B4B10126EE480088EE490880A08AEC49F6
:1002A00008800020B0490870207D48700122B148C4
:1002B000103000F088FEE6480188E7A006F096FBC3
:1002C000ECA1284602F042F80446D4B10126606948
:1002D000012816DB6069062813DCA08AE84908803B
:1002E0000020A1490870207D48700122E44801885F
:1002F000A048183000F067FEE1480188E1A006F050
:1003000075FBE6A1284602F021F80446F4B1012667
:10031000A08AE6490880002093490870207D487033
:100320000122E24993481C3000F04DFEDF4801886D
:10033000DFA006F05BFBDD480088012806D1002025
:10034000DA490880E249086096490860E1A1284638
:1003500001F0FCFF0446CCB101266069012801D000
:10036000606998B98F496069086000207E4908700B
:10037000207D487001228B4801687E48203000F0C3
:1003800022FE88480168D5A006F030FBD8480288D4
:100390006D49D8A006F02AFB80216B4805F065FB6B
:1003A00015B1284600F0E7FE16B9DDA006F01EFBE9
:1003B00000BFD2E670B5E0A006F018FB05210020D2
:1003C00002F0EDFC04460521012002F0E8FC0546A0
:1003D00022462946E1A006F009FB0521002002F093
:1003E000DEFC40F6E441484384000521012002F090
:1003F000D6FC40F6E44148438500E01704EB10507A
:100400000213E81705EB10500113DAA006F0EEFA1C
:10041000E1A006F0EBFAE948007808B9E8A000E0AE
:10042000E8A00146E9A006F0E1FAEEA006F0DEFA47
:1004300070BD2DE9FF470446002C7DD11421F24800
:1004400005F013FB624803885648F0A10268EE48A5
:1004500006F0DCFA1023EC4A0021084602F092FE76
:100460001421E94805F001FB6948038884480288A3
:10047000EAA1E54806F0CAFA1023E34A0221002067
:1004800002F080FE1421E04805F0EFFA9048E8A160
:100490000268DD4806F0BAFA1023DB4A0421002086
:1004A00002F070FE1421D84805F0DFFA9048028867
:1004B000DFA1D54806F0AAFA1023D34A0421482028
:1004C00002F060FE1421D04805F0CFFAD948027836
:1004D000D9A1CD4806F09AFA1023CB4A0621002074
:1004E00002F050FE1421C84805F0BFFA4FF48051C5
:1004F000D34803F0F2F905464FF40061D04803F009
:10050000ECF906464FF48061CD4803F0E6F9074662
:100510004FF40071CA4803F0E0F980464021C84812
:1005200003F0DBF981460821C54803F0D6F982467D
:100530004B465246C3A100E095E1B348CDE90087A0
:10054000CDE9026586E10000D30B0020696E76617B
:100550006C696420696E707574207265635F627582
:1005600066660A0072706D00020000202400002000
:10057000280000200000010867657474696E672018
:1005800072706D3A25640D0A00000000726F74618C
:1005900074655F746F74616C000000002C000020B3
:1005A000980000203000002067657474696E672031
:1005B000766F6C5F7468726573686F6C643A2564FB
:1005C0000D0A0000646972656374696F6E00000053
:1005D0003400002067657474696E67206469726511
:1005E0006374696F6E3A25640D0A00004552524FDC
:1005F0005220646972656374696F6E206E756D62F6
:100600006572210D0A0000006D6F64650000000036
:100610003800002067657474696E67206D6F6465CB
:100620003A25640D0A0000004552524F52206D6F6A
:100630006465206E756D626572210D0A0000000010
:100640007370645F6B6D5F685F72616E6B0000005A
:100650001C0000201E00002067657474696E67200E
:100660007370645F6B6D5F685F72616E6B3A256477
:100670000D0A00007370645F696E646578000000A5
:100680002000002067657474696E67207370645F72
:10069000696E6465783A25640A00000072657365C6
:1006A000745F706F736974696F6E00003A000020A8
:1006B00067657474696E672072657365745F706FC7
:1006C000736974696F6E5F666C61673A25640A00CE
:1006D0005C000020656E61626C6500006765747483
:1006E000696E6720656E61626C653A25640A000078
:1006F000360000202D2D2D2D2D2D2D2D2D2D2D2D88
:100700002D0A25730A206F6C645F6469723A256450
:100710000A2D2D2D2D2D2D2D2D2D2D2D2D2D0A007C
:100720006E6F2075736566756C20696E666F726D8D
:100730006174696F6E210A002D2D2D2D2D2D2D2D0B
:100740002D2D2D2D4144432D2D2D2D2D2D2D2D2D98
:100750002D2D2D2D2D2D2D0D0A00000061646331EE
:100760003A202564202C616463323A202564200DF0
:100770000A000000566F6C74616765313A20256489
:10078000206D562C566F6C74616765323A20256473
:10079000206D560D0A0000002D2D2D2D2D2D2D2DF7
:1007A0002D2D2D5354415455532D2D2D2D2D2D2DA3
:1007B0002D2D2D2D2D2D2D2D0D0A0000000000209A
:1007C00052554E0053544F5000000000202020206E
:1007D0002020202020257320202020202020200AD7
:1007E000000000002D2D2D2D2D2D2D2D2D2D2D2DED
:1007F0002D2D2D2D2D2D2D2D2D2D2D2D2D2D2D2D29
:100800002D2D2D0D0A000000B0030020656E202064
:10081000203A2564206469723A25640072616E6B27
:10082000203A2564206D6F64653A2564000000005D
:100830002564000058000020736875743A25640030
:10084000000C014020256425642564256425642569
:100850006400000006F0DAF81023734A06214020F5
:1008600002F090FC13E0012C11D00A2C0FD11421BE
:100870006D4805F0FAF86D4802886DA16A4806F0E7
:10088000C5F81023684A0021084602F07BFCBDE849
:10089000FF8710B50821674803F01FF8012801D130
:1008A000654908804FF48051624803F016F801282A
:1008B00002D100206049088010BD1FB500245F4BA5
:1008C0000FCB8DE80F0002F079FD4FF4A06002F02D
:1008D000A3FE4FF4E13002F0E9FD00F011FA02F05E
:1008E00005FA02F0DFFC02F073FB4FF4BE7254A174
:1008F00055A006F07BF802225549564800F052FBFD
:100900005548006855490860514840785049097871
:1009100000EB0120504908600846016850A006F02D
:1009200065F802224A494B48001D00F03BFB48484D
:1009300040784749097800EB012051490860084692
:10094000016850A006F052F8002142F2283000F071
:10095000EBF939480088002805DD0020534908607C
:1009600001205349086040F29F11AFF2A02006F029
:100970003DF840F2A511AFF2AC2006F037F8642044
:100980002A4908804EE0FFF7DFFB0020FFF751FD0A
:1009900048480088012802D002280BD109E04649C6
:1009A00009883DF81100454991FBF0F04449088061
:1009B00001E000E000BF00BF42480068424909680A
:1009C000884205DB3F4800683F490968401A04E057
:1009D0003D4800683B490968401AB0F57A7F08DB5A
:1009E00039480068374908600846016837A005F0B3
:1009F000FDFF334800883C490988884208D03048C8
:100A000001883A4804F0BCF82D480088364908802F
:100A1000641CB4F5487F05D900242B48016834A034
:100A200005F0E4FFAFE70000B00300203C00002029
:100A300025647300000C0140340000207C74000821
:100A40006D61696E2E63000025733A25640A00000B
:100A5000A603002000000108240000202800002038
:100A6000526561642066726F6D20666C61736820E8
:100A7000207B2072706D207D3A25640A0000000002
:100A80002C000020526561642066726F6D20666CD8
:100A900061736820207B20726F746174655F746F6E
:100AA00074616C207D3A25640A00000098000020E3
:100AB00030000020380000202000002000A24A045E
:100AC0001C000020600000205C0000207772697428
:100AD0006520746F2073696D756C61746520666C38
:100AE0006173683A25640A001E0000200008004077
:100AF00070756C73655F636F756E743A25640D0A6B
:100B000000000000704700BFFEE700BFFEE700BF27
:100B1000FEE700BFFEE77047704770477047000070
:100B20000CB50020019000906C48006840F48030C3
:100B30006A49086000BF6948006800F4003000900E
:100B40000198401C0190009818B90198B0F5A06F69
:100B5000F1D16248006800F4003010B1012000902B
:100B600001E0002000900098012843D15C48006813
:100B700040F010005A4908600846006820F0030061
:100B800008600846006840F002000860534840686A
:100B9000524948600846406848600846406840F44A
:100BA000806048600846406820F47C104860084631
:100BB000406840F4E81048600846006840F08070E3
:100BC000086000BF4548006800F000700028F9D0B8
:100BD0004248406820F003004049486008464068A9
:100BE00040F00200486000BF3C48406800F00C0044
:100BF0000828F9D10CBD10B5FFF792FF10BD10B554
:100C00003648006840F001003449086008464068F2
:100C10003449084031494860084600683249084074
:100C20002E4908600846006820F4802008600846C5
:100C3000406820F4FE0048604FF41F008860FFF712
:100C4000DAFF4FF000602949086010BD10B500219F
:100C500000200022214B5B6803F00C0121B1042924
:100C600006D0082928D107E0214B224C236027E039
:100C70001F4B204C236023E0184B5B6803F470107B
:100C8000164B5B6803F48032022303EB904022B9D9
:100C9000194B4343174C23600DE0104B5B6803F482
:100CA000003323B1144B4343124C236003E0104B39
:100CB0004343104C236003E00D4B0E4C236000BFF8
:100CC00000BF064B5B68C3F303130C4CE15C094B9C
:100CD0001B68CB40074C236010BD00000010024091
:100CE000002002400000FFF8FFFFF6FE08ED00E0E4
:100CF00000127A007800002000093D007C000020EE
:100D000008B501210C2003F011F841F6C870ADF8C8
:100D1000000028208DF803006946024802F04AFDD1
:100D200008BD0000000C01407FB505460C460121BE
:100D3000042003F008F8ADF80850ADF80440002096
:100D4000ADF80A00ADF806008DF80C0001A97D4849
:100D500003F024F9012211467A4803F096FC1E2084
:100D60008DF8000001208DF8010003208DF80200AD
:100D700001208DF80300684602F053FC0121714800
:100D800003F068FC7FBD10B501216E4803F02BFF16
:100D900000284ED001216B4803F036FF6A480068F6
:100DA00018B101206949086002E000206749086025
:100DB0006748008864490968884206D0624800880C
:100DC000634908800020634908706248007840BB8E
:100DD0005E48001D0068C0F101005F49C1F8A00134
:100DE0005E480078C0F101005C4908700846007850
:100DF00001281ED15448006828B959480068401E8F
:100E00005749086004E056480068401C544908608F
:100E10005348006843F2BC41884203DB01204D493E
:100E2000087006E04E480068012802DA01204949AE
:100E3000087010BD7FB505460C460121022002F066
:100E400082FFADF80850ADF804400020ADF80A006C
:100E5000ADF8060001A9434803F0A0F801221146AD
:100E6000404803F012FC1D208DF8000000208DF892
:100E7000010003208DF8020001208DF80300684670
:100E800002F0CFFB0121374803F0E4FB7FBD10B532
:100E90000121344803F0A7FE88B10121314803F055
:100EA000B3FE31480088002804DD2F480088401E2A
:100EB0002D4908802D480078401C2C49087010BD31
:100EC00030B589B005460C460121022002F03BFFF7
:100ED0000121092002F02AFF0121254802F03BFDF3
:100EE0002020ADF8200018208DF8230003208DF875
:100EF000220008A91F4802F05DFCADF81850ADF8BB
:100F000014400020ADF81A00ADF8160005A91548E8
:100F100003F044F87020ADF804000120ADF806009D
:100F20000020ADF80C0001A90E4803F0B6F8082126
:100F30000C4803F0C8FC01210A4803F08BFB09B000
:100F400030BD000000080040340000209C81214298
:100F50003600002058000020008021429C00002024
:100F60005C000020000400403C00002064000020E1
:100F700000081A00000C01400146088870472DE95E
:100F8000F04105460E461746002407E036F81410D7
:100F9000284604F0A8F9AD1C601C84B2BC42F5DB05
:100FA000BDE8F08130B503460C461546002207E047
:100FB0001846FFF7E1FF24F812009B1C501C82B278
:100FC000AA42F5DB30BD2DE9F05F80468A46174620
:100FD000B8F1006F02D33748804501D3BDE8F09FD8
:100FE00004F039F8A8F1006B4FEADB25CBF349098F
:100FF000C9F58064A74200DC3C464DE04FF000613B
:1010000001EBC5204A142C49FFF7CCFF00260BE06A
:1010100009EB0600284931F810004FF6FF718842AD
:1010200000D003E0701C86B2A642F1DB00BFA642EE
:101030001BDA4FF0006101EBC52004F051F80026E7
:1010400008E03AF8160006EB09011B4A22F81100E5
:10105000701C86B2A642F4DB4FF0006101EBC520A4
:101060004A141549FFF78BFF04E0224651464046DB
:10107000FFF785FFA74200D10FE06D1C4FF000097C
:101080000AEB440AA044381B87B2B7F5806F02DD33
:101090004FF4806400E03C46B0E700BF03F0E7FF98
:1010A00000BF9BE713B50446012201A92046FFF7C4
:1010B0008AFF1CBD00000808C4030020FB4800682C
:1010C000FA4949680844704708B5032005230122FE
:1010D000F7A10090F94805F099FCF84808BD70B5F3
:1010E00004460D4604B10DB9012070BDAC4201D1DA
:1010F0000020FAE705E0207808B90020F5E7641C35
:101100006D1C207804F08DFC0646287804F089FCDC
:101110008642F0D0207804F084FC0646287804F05B
:1011200080FC301AE1E72DE9F04104460D46002627
:10113000002714B90020BDE8F081204604F0A0FC8F
:10114000461C304629688847071E00D1F3E732461F
:101150002146384604F070FC3846ECE770B504468A
:1011600028202168884705461DB12821284604F01B
:101170007CFC284670BD70B50446002522E0256839
:10118000A08900F4807020B9A06810B1A068FFF7B2
:10119000F2FFA08900F4807028B9206918B1C84A0C
:1011A000206951688847A08900F4007028B9A069B7
:1011B00018B1C34AA06951688847C14841682046B0
:1011C00088472C46002CDAD170BD10B504F030FCF5
:1011D00004462068007810BD2DE9F04391B08046A8
:1011E0000C4600BF00201090FFF7EFFF814600255E
:1011F0000CB1206818B9002011B0BDE8F0830025BB
:101200003CE0A16820680844405D342820D00ADC16
:10121000A0F12B0009282ED2DFE800F0202D212A92
:101220002D1617181900382816D006DC352810D0CE
:1012300036280FD037281ED10DE039280DD045288B
:101240000FD0652817D10BE000BF00BF00BF00BF63
:1012500000BF00BF00BF00BF00BF00BF00BF00BF96
:1012600000BFA16820680844405D0DF8050003E058
:101270000DF8059000E00AE000BF6D1C3F2D05D27F
:1012800024B1A068284461688842BAD300BF002016
:101290000DF8050010A9684606F0E2F806460F466C
:1012A00068461099884201D10020A5E7C8E908677F
:1012B000844A854B3046394604F0AAFE04D86FF0C4
:1012C0000040C8F8140011E00022804B3046394637
:1012D00004F086FE04D84FF00040C8F8140005E082
:1012E0003046394604F049FEC8F814000820C8F812
:1012F0000C00A0686A461099891A0844A060012071
:101300007AE770B5064614461D466E4A6E4B204677
:10131000294604F07DFE03D86FF0004070610FE0B5
:1013200000226A4B2046294604F05AFE03D84FF0AB
:101330000040706104E02046294604F01EFE706102
:1013400020462946C6E9084570BD2DE9F04104460E
:101350000D46002600270CB1206810B90020BDE81A
:10136000F081606828B1D4E90110884201D30020DF
:10137000F5E7B5F1004F01D30020F0E7A068401C6D
:1013800005446068A84203D3A16820680844E6E7E2
:10139000206908B10020E2E7B5F1804F07D3B5F12D
:1013A000004F02D26FF0004702E00020D7E76F0045
:1013B000206A28B13946226A20689047064615E01F
:1013C0003846A1698847064636B9E16920688847EA
:1013D000002060602060C2E72EB1A068421C304649
:1013E000216804F029FBE16920688847676026606E
:1013F000A0683044B3E770B5044600250CB12068FE
:1014000000B970BDA16820684518284604F038FB73
:10141000A1680844A06000BFF3E72DE9F04F8BB04E
:1014200082460D464FF00009DAE9087800260024CC
:10143000FFF7CBFE83461DB900200BB0BDE8F08F4F
:10144000002213463846414604F014FD002213469C
:10145000CDE9000104F0C4FD05D01DA104A805F0EC
:10146000D5FA06461BE03A4643461BA104A805F000
:10147000CDFA064602AA1AA104A804F02FFB0128FF
:1014800006D13A464346DDE9020104F0A9FD06D043
:101490003A46434613A104A805F0B8FA0646002EC2
:1014A00001DB192E22DD0020C7E70000A00000208C
:1014B00025692E25692E256900000000C40B002037
:1014C000A80000200000C0FFFFFFDF410000E0C1D6
:1014D0006E756C6C0000000025312E313567000000
:1014E000256C670025312E313767000031462846CC
:1014F000FFF72BFF8146B9F1000F01D100209CE7D7
:1015000000240DE004A8005D584503D12E2009F801
:10151000040004E004A8005D09F8040000BF641C96
:10152000B442EFD3002009F80400A8683044A86052
:10153000012082E702460023002100BF23E0505C27
:10154000302806DB505C392803DC505C303803441B
:1015500015E0505C412806DB505C462803DC505CFB
:10156000373803440BE0505C612806DB505C66288A
:1015700003DC505C5738034401E000207047032926
:1015800000D21B01491C0429D9D31846F6E72DE9DE
:10159000FF5F80468946154600240026C24600208B
:1015A0000390834602900190A9EB0A00062800DA16
:1015B00081E00AF10200FFF7BDFF0646B6F55C4F79
:1015C00003D3B6F5604F00D275E0B6F5584F29D376
:1015D000B6F55C4F26D20AF10607002000900C20D9
:1015E0000290A9EB0700062800DA64E038785C284E
:1015F00002D17878752800D05DE0B81CFFF79AFF1B
:1016000000900098B0F55C4F03D30098B0F5604FA0
:1016100000D350E0C6F30901009861F39F2000F564
:10162000803402E0062002903446802C02D2012051
:10163000039018E0B4F5006F04D202200390C0209C
:10164000019010E0B4F5803F04D203200390E02025
:10165000019008E0B4F5881F04D204200390F02024
:10166000019000E027E00398401E00F0FF0B0BE024
:1016700004F0BF0040F08000296801F80B00A409C5
:10168000ABF1010000F0FF0BBBF1000FF0DC0398A1
:10169000012804DD019820432968087003E004F064
:1016A0007F00296808702968039808442860029818
:1016B00004B0BDE8F09F0020FAE72DE9F84F80461E
:1016C0000C46A16820680844461CA16820680844AC
:1016D000451C002000900027A1682068405C22285B
:1016E00000D0A6E04FF0000AD1460DE028785C2833
:1016F00009D1681C2168401A6168884200D398E0CB
:1017000009F101096D1C6D1C2068281A6168884266
:1017100002D228782228E9D12068281A61688842F4
:1017200002D22878222800D083E0A16820680844EB
:10173000281AA0EB090A0AF1010021698847074627
:1017400007B976E0009761E030785C2807D016F89A
:10175000010B009908700098401C009056E04FF073
:101760000209A81B012800DA63E07078662819D006
:1017700008DC222832D02F2832D05C282FD06228D3
:1017800040D108E06E2814D0722819D074281ED0D9
:10179000752837D12BE00820009908700098401C6C
:1017A000009030E00C20009908700098401C0090D8
:1017B00029E00A20009908700098401C009022E05F
:1017C0000D20009908700098401C00901BE0092033
:1017D000009908700098401C009014E000BF00BF02
:1017E0007078009908700098401C00900BE06A46E1
:1017F00029463046FFF7CBFE8146B9F1000F00D1F4
:1018000017E000E015E000BF4E4400BFAE429BD39E
:101810000020009908701020C8F80C00C8F810705B
:101820002068281AA060A068401CA0600120BDE8C4
:10183000F88F17B138466169884716B12068301AA9
:10184000A0600020F3E72DE9F04707468A46002410
:1018500000260025A046A146BAF1000F02D10020C3
:10186000BDE8F0876FB903215046FFF76EFD0646CD
:101870000EB90020F4E7FBA1304604F016F9012070
:10188000EEE73C4622E020780C2811D006DC082840
:101890000DD009280FD00A2810D10AE00D2809D050
:1018A000222802D05C2809D100E000BF00BF00BFA1
:1018B00000BF00BF00BF09F1010905E02078202822
:1018C00001DA09F1050900BF00BF641C2078002877
:1018D000D9D1E01B00EB090808F103015046FFF7DE
:1018E00034FD06460EB90020BAE7B9F1000F0FD15A
:1018F0002220307042463946701C04F09DF82221A7
:1019000008F1010031540021401C31540120A7E7A7
:1019100022203070751C3C463DE020781F2808DDF1
:101920002078222805D020785C2802D020782870E2
:101930002FE05C2005F8010B20780C2815D006DC80
:1019400008280FD0092819D00A281AD110E00D282C
:1019500011D0222803D05C2813D1287018E022204F
:10196000287015E06220287012E0662028700FE0D1
:101970006E2028700CE07220287009E07420287016
:1019800006E02278B8A1284605F040F82D1D00BFDA
:1019900000BF641C6D1C20780028BED1222108F1F4
:1019A000010031540021401C3154012058E770B52A
:1019B00004460D4629462069FFF745FF70BD0146E4
:1019C00009B1086808B90020704702E08868401C27
:1019D000886041B1D1E90120904204D28A68086848
:1019E000805C2028F2DDD1E90120904202D1886894
:1019F000401E88600846E7E72DE9F04180460C4626
:101A000000270025E068B0F57A7F02D30020BDE80A
:101A1000F081E068401CE06044B1D4E901108842E4
:101A200004D2A1682068405C7B2800D07BE0A068DD
:101A3000401CA0602046FFF7C2FF4CB1D4E9011062
:101A4000884205D2A1682068405C7D2800D15DE015
:101A50001CB1D4E90110884203D3A068401EA060E5
:101A600061E0A068401EA06000BF04F11000FFF715
:101A700075FB064606B956E017B93746354602E00B
:101A80002E6075603546A068401CA0602046FFF7B8
:101A900096FF21462846FFF710FE00B943E0204696
:101AA000FFF78DFF2869A8610020286144B1D4E9BF
:101AB0000110884204D2A1682068405C3A2800D016
:101AC00031E0A068401CA0602046FFF778FF214667
:101AD000284600F0A8F800B925E02046FFF76FFF80
:101AE00044B1D4E90110884204D2A1682068405C66
:101AF0002C28BAD044B1D4E90110884204D2A1689C
:101B00002068405C7D2800D00DE000BFE068401EEA
:101B1000E0604020C8F80C00C8F80870A068401CBD
:101B2000A060012073E717B13846FFF724FB0020BF
:101B30006DE72DE9F04107460C460026B046E06807
:101B4000B0F57A7F02D30020BDE8F081E068401C48
:101B5000E060A1682068405C5B2800D05DE0A06880
:101B6000401CA0602046FFF72AFF4CB1D4E90110C9
:101B7000884205D2A1682068405C5D2800D141E020
:101B80001CB1D4E90110884203D3A068401EA060B4
:101B900043E0A068401EA06000BF04F11000FFF702
:101BA000DDFA054605B938E016B92E46A84604E028
:101BB000C8F80050C5F80480A846A068401CA06082
:101BC0002046FFF7FCFE2146404600F02CF800B905
:101BD00023E02046FFF7F3FE44B1D4E90110884228
:101BE00004D2A1682068405C2C28D6D044B1D4E946
:101BF0000110884204D2A1682068405C5D2800D0B2
:101C00000BE000BFE068401EE0602020F860BE608E
:101C1000A068401CA060012096E716B13046FFF78F
:101C2000AAFA002090E770B505460C460CB1206872
:101C300008B9002070BDDCB1A068001D6168884251
:101C400016D8A268216888180422AFF27C7103F0CC
:101C500035FF68B90420E860A068001DA06001207D
:101C6000E8E70000222200007525303478000000EB
:101C70009CB1A068401D616888420ED8A2682168A6
:101C800088180522F9A103F019FF30B90120E86096
:101C9000A068401DA0600120CCE7ACB1A068001D89
:101CA0006168884210D8A268216888180422F1A1CE
:101CB00003F004FF40B90220E86001206861A068D9
:101CC000001DA0600120B5E76CB1D4E90110884285
:101CD00009D2A1682068405C222804D12146284608
:101CE000FFF7EBFCA6E7BCB1D4E90110884213D2A0
:101CF000A1682068405C2D2809D0A1682068405C5C
:101D0000302809DBA1682068405C392804DC2146C2
:101D10002846FFF761FA8DE76CB1D4E901108842DB
:101D200009D2A1682068405C5B2804D1214628467E
:101D3000FFF7FFFE7EE76CB1D4E90110884209D2BB
:101D4000A1682068405C7B2804D121462846FFF723
:101D500053FE6FE700206DE72DE9F0418AB004469D
:101D60000D4617461C2103A803F07FFE0026002025
:101D7000C2490860486004B931E00394204603F08A
:101D80007FFE401C049000200590BD4A07CA07ABA7
:101D900007C3BB48FFF7E2F9064606B91FE003A8F0
:101DA000FFF70DFE804641463046FFF73CFF00B985
:101DB00015E05FB103A8FFF702FEDDE904108842D9
:101DC00003D205990398405C00B108E01DB1059964
:101DD00003980844286030460AB0BDE8F08116B187
:101DE0003046FFF7C8F9CCB1019400200290DDE93C
:101DF0000410884202D20598029004E0049810B1C1
:101E00000498401E029025B1DDE9010108442860D4
:101E100003E09A48DDE9011206C000BF0020DBE7BD
:101E200010B50446002211462046FFF795FF10BD6D
:101E30002DE9F04781460C4600250026D9F80870A8
:101E400014B90020BDE8F087606908B1022000E005
:101E500001200646711C2046FFF777FA05460DB9AA
:101E60000020EFE77B2005F8010BE068401CE060F4
:101E7000606910B10A2005F8010BA0683044A06029
:101E800069E06069B8B12046E168FFF75EFA05468F
:101E90000DB90020D6E74FF0000804E0092005F84E
:101EA000010B08F10108E0684045F7D8D4E90201C8
:101EB0000844A06000BF2146B869FFF7C4FC08B918
:101EC0000020BFE72046FFF796FA606908B10220BC
:101ED00000E00120064631462046FFF736FA054667
:101EE0000DB90020AEE73A2005F8010B606910B18A
:101EF000092005F8010BA0683044A060214638464F
:101F000000F0A9F808B900209CE72046FFF773FA13
:101F1000606908B1012000E00020396809B10121A1
:101F200000E000214618711C2046FFF70EFA054616
:101F30000DB9002086E7386810B12C2005F8010B98
:101F4000606910B10A2005F8010B00202870A06814
:101F50003044A0603F68002F93D1606910B1E06801
:101F6000401C00E0022001462046FFF7EEF905463E
:101F70000DB9002066E7606950B1002003E0092137
:101F800005F8011B401CE168491E8142F7D800BFDB
:101F90007D2005F8010B00202870E068401EE060FD
:101FA00001204FE72DE9F04107460C460025A846E1
:101FB000BE6814B90020BDE8F08101212046FFF77A
:101FC000C4F905460DB90020F5E75B202870A0682C
:101FD000401CA060E068401CE06028E021463046DC
:101FE00000F039F808B90020E5E72046FFF703FACA
:101FF0003068D8B1606908B1022000E00120804655
:1020000008F101012046FFF7A0F905460DB90020AF
:10201000D1E72C2005F8010B606910B1202005F8EC
:10202000010B00202870A0684044A0603668002E94
:10203000D4D102212046FFF788F905460DB90020CA
:10204000B9E75D2005F8010B00202870E068401E0C
:10205000E0600120AFE72DE9F04104460D4600267F
:1020600004B17DB90020BDE8F081000066616C73A9
:10207000650000007472756500000000A00000207B
:10208000A8000020207B10285FD008DC01281CD08D
:10209000022829D0042809D0082865D133E0202857
:1020A00058D040285BD080285ED131E005212846F9
:1020B000FFF74BF906460EB90020D4E7AFF6F03132
:1020C000304603F0F2FC0120CDE706212846FFF759
:1020D0003CF906460EB90020C5E7AFF27001304664
:1020E00003F0E3FC0120BEE705212846FFF72DF9A8
:1020F00006460EB90020B6E7AFF28801304603F07D
:10210000D4FC0120AFE729462046FFF786F9AAE76D
:102110000027206930B9286910B9E969286888471B
:102120000020A0E7206903F0ABFC471C3946284695
:10213000FFF70BF906460EB9002094E73A46304601
:10214000216903F079FC01208DE729462046FFF73D
:102150002EFC88E729462046FFF724FF83E729461F
:102160002046FFF765FE7EE700207CE7F0B589B0EA
:1021700007460E46144600252421684603F075FCE8
:102180004FF480702168884700900596D4E90102D9
:102190002168CDE907020691009800B931E069464F
:1021A0003846FFF758FF00B92BE06846FFF723F9E0
:1021B000A06840B1DDE90001A26890470546002013
:1021C0000090DDB91DE0029A501C21688847054641
:1021D00005B916E0DDE90130401C834201D20198C7
:1021E00001E00298401C02462846009903F024FCB6
:1021F000002002996854009861688847284609B011
:10220000F0BD009810B10098616888470020F6E79B
:1022100010B50446F74A01212046FFF7A7FF10BD7D
:1022200010B50446F34A00212046FFF79FFF10BD7A
:1022300070B58AB006460C461546242101A803F065
:1022400014FC002C02DA00200AB070BDE9480168D5
:10225000204688470190019808B90020F4E70294CD
:102260000020039005900695E24A07CA07AB07C312
:1022700001A93046FFF7EFFE08B90020E4E7019816
:10228000E2E7F0B589B007460D4614461E46242104
:10229000684603F0EAFB002C02DA002009B0F0BD2A
:1022A0000095019400200290012004900596D14AE7
:1022B00007CA06AB07C369463846FFF7CCFEEDE711
:1022C00001468A68002001E0401C1268002AFBD108
:1022D000704702460B4600210AB9002070479168FA
:1022E00001E05B1E096809B1002BFAD10846F5E749
:1022F00070B505460C46002C01DA002070BD214661
:102300002846FFF7E6FFF9E72DE9F04105460E46BE
:102310001746002405B116B90020BDE8F081AC686D
:102320004FB100E024687CB13046A16903F0AFFBF7
:102330000028F7D108E000E024682CB13046A169FC
:10234000FEF7CDFE0028F7D12046E6E770B504463B
:102350000D46002229462046FFF7D6FF70BD70B516
:1023600004460D46012229462046FFF7CDFF70BDE9
:1023700070B504460D4629462046FFF7E7FF08B131
:10238000012070BD0020FCE701604860704770B517
:1023900005460E463046FEF7E1FE04460CB9002025
:1023A00070BD28222946204603F046FB0020A0618C
:1023B000E06840F48070E0600020606020602046AB
:1023C000EEE770B504460E46002506B104B970BDAF
:1023D000A5680DB9A66008E000E02D68286800280F
:1023E000FBD131462846FFF7CFFF00BFEFE770B5BE
:1023F00006460D46144604B970BDA08900F400706D
:1024000028B9A06918B17B4AA06951688847A561BD
:10241000E06840F40070E06021463046FFF7D1FFED
:1024200000BFE9E72DE9F04106460D461446714923
:102430002846FEF778FE0746224639463046FFF723
:10244000D6FFE06820F40070E060BDE8F08170B570
:1024500005460C4667492046FFF799FF0646314678
:102460002846FFF7AEFF70BD2DE9F04105460E4648
:10247000144660492046FFF78AFF07463A46314630
:102480002846FFF7CFFFBDE8F081024602B109B947
:1024900000207047486810B1D1E90003186008684F
:1024A00010B1D1E9003058609068884201D10868C5
:1024B00090600020486008600846EAE770B505466D
:1024C0000C46002C01DA002070BD21462846FFF79B
:1024D00000FF064631462846FFF7D7FFF4E770B500
:1024E00004460D4629462046FFF7E8FF0646FEF75C
:1024F00042FE70BD70B504460D4629462046FFF7E2
:1025000025FF064631462046FFF7BFFF70BD70B578
:1025100004460D4629462046FFF721FF0646314670
:102520002046FFF7B2FF70BD70B504460D46294640
:102530002046FFF7DFFF0646FEF71DFE70BD70B5B3
:1025400004460D4629462046FFF7E1FF0646FEF702
:1025500012FE70BD2DE9F04106460F4614460025D7
:10256000002F01DABDE8F08139463046FFF7B1FEB1
:10257000054625B921463046FFF723FFF2E72560DF
:10258000686860606C60B068A84201D1B46001E026
:102590006068046000BFE5E770B506460D46144666
:1025A00006B10CB9002070BDAC4201D10120FAE7A0
:1025B0002868206068686060206808B1206844600E
:1025C000606808B160680460B068A84200D1B46077
:1025D0000020286068602846FEF7CDFD0120E2E774
:1025E0002DE9F04105460C461646002C04DABDE8FC
:1025F000F0810000A800002021462846FFF769FE70
:102600000746324639462846FFF7C6FF00BFEEE7C9
:1026100010B50446F74841682046884710BD2DE9AB
:10262000F04107460D4614461E4614B90020BDE889
:10263000F081A08900F4007020B9A06910B1A069F0
:10264000FFF7E6FFEB492846FEF76DFDA061E06865
:1026500020F40070E060324629463846FFF754FE09
:102660008046224641463846FFF796FF0120DEE7C6
:1026700070B504460D4616460023324629462046CC
:10268000FFF7CDFF70BD70B504460D461646012319
:10269000324629462046FFF7C2FF70BD10B5D54827
:1026A000FEF75CFD04460CB10420E060204610BD3E
:1026B00010B5D048FEF752FD04460CB10220E06090
:1026C000204610BD10B5CB48FEF748FD04460CB1BE
:1026D0000120E060204610BD70B50546C548FEF7F4
:1026E0003DFD044624B10DB1022000E00120E06070
:1026F000204670BD70B505460E46BE48FEF72EFD5D
:102700000446F4B10820E060C4E90856BA4ABB4B5D
:102710002846314603F07CFC03D86FF0004060612E
:102720000FE00022B64B2846314603F059FC03D88F
:102730004FF00040606104E02846314603F01DFC84
:102740006061204670BD70B50546AA48FEF706FDDB
:1027500004466CB11020E060A6492846FEF7E3FC71
:102760002061206920B92046FEF705FD002070BDDC
:102770002046FCE770B505469E48FEF7EFFC044690
:102780006CB18020E0609B492846FEF7CCFC2061BC
:10279000206920B92046FEF7EEFC002070BD2046DF
:1027A000FCE710B59348FEF7D9FC04460CB1202095
:1027B000E060204610BD10B58E48FEF7CFFC044601
:1027C0000CB14020E060204610BD2DE9F05F82464C
:1027D0000E4600240025A346A146002E02DA002062
:1027E000BDE8F09FFFF7DDFF8146002417E05AF8AF
:1027F000240003F0B1FB0746FFF77CFF054625B92F
:102800004846FEF7B8FC0020EAE714B9C9F80850BA
:1028100003E029465846FFF7B7FDAB46641CB9F103
:10282000000F01D0B442E2D34846D9E72DE9F05F6A
:1028300082460E4600240025A346A146002E02DA59
:102840000020BDE8F09FFFF7ACFF8146002417E0B1
:102850005AF8240003F0B0FB0746FFF74BFF05468C
:1028600025B94846FEF787FC0020EAE714B9C9F805
:10287000085003E029465846FFF786FDAB46641C26
:10288000B9F1000F01D0B442E2D34846D9E72DE9AF
:10289000F04780460E4600240025A1460027002E62
:1028A00002DA0020BDE8F087FFF77BFF074600242F
:1028B00016E008EBC400D0E900211046FFF71AFF2C
:1028C000054625B93846FEF756FC0020EAE70CB964
:1028D000BD6003E029464846FFF756FDA946641C43
:1028E0000FB1B442E5D33846DCE72DE9F047804626
:1028F0000E4600240025A1460027002E02DA002003
:10290000BDE8F087FFF74DFF0746002413E058F8B5
:102910002400FFF718FF054625B93846FEF72BFCC3
:102920000020EDE70CB9BD6003E029464846FFF7FB
:102930002BFDA946641C0FB1B442E8D33846DFE74B
:102940002DE9F0470446894600250027A8460026C1
:1029500004B948E02748FEF701FC054605B942E006
:10296000E06820F48070E86060696861D4E908017B
:10297000C5E90801206938B11E492069FEF7D3FB7B
:102980002861286900B92EE0A06968B1A08900F427
:10299000007008B1A06903E01649A069FEF7C3FB07
:1029A000A861A86900B91EE0B9F1000F02D128465C
:1029B000BDE8F087A76812E001213846FFF7C0FFA5
:1029C000064606B90FE0B8F1000F05D0C8F8006060
:1029D000C6F80480B04601E0AE60B0463F68002F04
:1029E000EAD12846E4E715B12846FEF7C4FB0020EB
:1029F000DEE70000A80000200000C0FFFFFFDF416D
:102A00000000E0C1014655E00278202A01D1401CB7
:102A100050E00278092A01D1401C4BE002780D2ACF
:102A200001D1401C46E002780A2A01D1401C41E055
:102A300002782F2A0BD142782F2A08D100E0401CBF
:102A40000278002A36D002780A2A33D0F7E70278D3
:102A50002F2A0ED142782A2A0BD100E0401C02789E
:102A60002AB102782A2AF9D142782F2AF6D1801C7D
:102A700020E00278222A19D110F8012B01F8012B4D
:102A80000AE002785C2A03D110F8012B01F8012B2F
:102A900010F8012B01F8012B027812B10278222ADA
:102AA000EFD110F8012B01F8012B03E010F8012BF6
:102AB00001F8012B0278002AA6D10A70704701465E
:102AC00009B900207047087B08B90120FAE7002007
:102AD000F8E7014609B900207047087B012800D1BA
:102AE000FAE70020F8E7014609B900207047087BA3
:102AF000022801D10120F9E70020F7E7014609B9D2
:102B000000207047087B00F0030008B10120F8E7BF
:102B10000020F6E7014609B900207047087B042829
:102B200001D10120F9E70020F7E7014609B90020AB
:102B30007047087B082801D10120F9E70020F7E75A
:102B4000014609B900207047087B102801D10120F7
:102B5000F9E70020F7E7014609B900207047087B34
:102B6000202801D10120F9E70020F7E7014609B943
:102B700000207047087B402801D10120F9E70020A0
:102B8000F7E7014609B900207047087B802801D18A
:102B90000120F9E70020F7E72DE9F04704468946D0
:102BA00092465CB1B9F1000F08D0207B99F80C1067
:102BB000884203D12046FFF782FF10B10020BDE814
:102BC000F087207B102814D008DC01280DD00228C3
:102BD0000CD004280BD008280FD109E020280AD0F7
:102BE000402809D0802808D104E000BF00BF00BF02
:102BF00000BF00BF00BF00BF01E00020DFE700BF53
:102C00004C4501D10120DAE7207B102821D008DCD7
:102C100001280DD002280CD004280BD008285AD146
:102C20000AE0202827D0402838D0802853D111E04E
:102C300000BF00BF0120C2E7D9E908532A46D4E902
:102C40000871384603F0CCF901D10120B7E7002024
:102C5000B5E700BF206910B1D9F8100008B900200D
:102C6000ADE7D9F81010206902F011FF08B9012072
:102C7000A5E70020A3E7A568D9F8086009E0524657
:102C800031462846FFF788FF08B9002097E72D68EE
:102C900036680DB1002EF2D1012090E700250CB16D
:102CA000A06800E00020054611E052464846A969A8
:102CB000FFF72AFB06460EB9002080E75246314650
:102CC0002846FFF769FF08B9002078E72D68002D36
:102CD000EBD1012073E7002071E710B504460248EC
:102CE00001682046884710BDA800002000B587B0C5
:102CF00001214FF4017001F019F84FF4004000F089
:102D000079FF0720ADF8040000208DF8070001A925
:102D10002E4800F04FFD2E4802F05CFC002002908F
:102D20008DF80C008DF80D004FF460200490002009
:102D3000059001208DF8180002A9254802F071FCC9
:102D40000121234802F099FC214802F0B8FC00BFA1
:102D50001F4802F0B9FC0028FAD11D4802F0BEFC61
:102D600000BF1B4802F0BFFC0028FAD107B000BD2D
:102D700010B50446072301222146154802F0E9FC5C
:102D80000121134802F0B9FC00BF0221104802F0F3
:102D900025FE0028F9D00E4802F042FD10BD2DE9B5
:102DA000F04107460C460025002608E03846FFF7AC
:102DB000DFFF0544052000F03EFB701CC6B2A642B2
:102DC000F4DBB5FBF4F080B2BDE8F081000801400F
:102DD0000024014010B50446204603F02BFE10BD30
:102DE00010B50446204603F053FE10BD10B5202157
:102DF000F94800F08CFD8021F74800F088FD802123
:102E0000F54800F086FD2021F34800F082FD10BD5A
:102E100010B52021F04800F07AFD8021EE4800F046
:102E200078FD8021EC4800F072FD10BD10B5202126
:102E3000E94800F06CFD2021E74800F06AFD10BD74
:102E40002DE9F04105462C462021E34800F061FDC4
:102E5000002619E0274607F08007802F04D1802143
:102E6000DD4800F054FD03E08021DB4800F051FD17
:102E70006006040E2021D84800F049FD2021D648E4
:102E800000F047FD701CC6B2082EE3DBBDE8F08100
:102E900010B50446FFF7AAFF7820FFF7D1FFFFF730
:102EA000C5FF0020FFF7CCFFFFF7C0FF2046FFF76C
:102EB000C7FFFFF7BBFFFFF7ABFF10BD10B5044620
:102EC000FFF794FF7820FFF7BBFFFFF7AFFF40202D
:102ED000FFF7B6FFFFF7AAFF2046FFF7B1FFFFF7A6
:102EE000A5FFFFF795FF10BD70B504460D461DB157
:102EF000E0B2FFF7E3FF02E0E0B2FFF7C9FF70BD09
:102F000070B50646002418E004F1B0000021FFF778
:102F1000EBFF00210846FFF7E7FF00211020FFF735
:102F2000E3FF002505E001213046FFF7DDFF681CC7
:102F3000C5B2802DF7DB601CC4B2082CE4DB70BD89
:102F400006E041F6650100E0491E0029FCD1401E63
:102F50000028F6D17047014605E0002001E0421C40
:102F6000D0B27B28FBDB0A1EA1F10101F5D170472D
:102F700070B504460D4605F1B0000021FFF7B4FF1F
:102F8000102141EA14100021FFF7AEFF04F00F00FA
:102F90000021FFF7A9FF70BD10B500218D20FFF7BC
:102FA000A3FF00211420FFF79FFF0021AF20FFF7B0
:102FB0009BFF10BD10B500218D20FFF795FF00216C
:102FC0001020FFF791FF0021AE20FFF78DFF10BD0D
:102FD00070B5002418E004F1B0000021FFF784FF71
:102FE00000210846FFF780FF00211020FFF77CFF3B
:102FF000002505E001210020FFF776FF681CC5B21F
:10300000802DF7DB601CC4B2082CE4DB70BD70B50A
:10301000002418E004F1B0000021FFF765FF002153
:103020000846FFF761FF00211020FFF75DFF002534
:1030300005E001210846FFF757FF681CC5B2802D47
:10304000F7DB601CC4B2082CE4DB70BD2DE9F0474F
:1030500007460E469046994600250024A8F1200018
:10306000C5B27F2F02DD0027B01CC6B2B9F1100F28
:1030700024D131463846FFF77BFF002408E004EBFB
:103080000511564A505C0121FFF72EFF601CC4B2A7
:10309000082CF4DB701CC1B23846FFF769FF00242E
:1030A00009E004EB051108314C4A505C0121FFF79F
:1030B0001BFF601CC4B2082CF3DB12E0314638461B
:1030C000FFF756FF00240AE005EB4501444A02EBF6
:1030D0004101085D0121FFF707FF601CC4B2062C07
:1030E000F2DBBDE8F08710B50246012000E0504356
:1030F0000B1EA1F10104E1B2F9D110BD2DE9FF5F72
:10310000074691461E460E9D4FF0000A002435E00A
:10311000301B401EC1B20A20FFF7E5FFB9FBF0F0FB
:103120000A21B0FBF1F201FB1208BAF1000F14D131
:10313000701EA04211DDB8F1000F0CD1AB4605EBBB
:10314000DB71491001FB0471C8B22B4620220199A2
:10315000FFF77CFF10E04FF0010AAB4605EBDB7197
:10316000491001FB0471C8B208F13001CAB22B4604
:103170000199FFF76BFF00BF601CC4B2B442C7DB0C
:10318000BDE8FF9F2DE9F04104460F4615469846DD
:1031900000260FE0AA5D434639462046FFF756FF5A
:1031A00004F10800C4B2782C02DD0024B81CC7B2B8
:1031B000701CC6B2A85D0028ECD1BDE8F0812DE9F5
:1031C000F04180460E461546002731464046FFF73F
:1031D000CFFE002411E0000000080140B276000894
:1031E0008A740008734A02EB8511085D0121FFF71C
:1031F0007BFE781CC7B2601CC4B2102CF2DB701CC2
:10320000C1B24046FFF7B4FE00240CE06900491C3F
:10321000684A02EB4111085D0121FFF765FE781C49
:10322000C7B2601CC4B2102CF0DBBDE8F0812DE900
:10323000F05F06460F4690461C46DDF828A04FF08A
:10324000000BE11704EB5171C910A4EBC10131B9B6
:103250002046E11704EB5171C1F3C70506E0204693
:10326000E11704EB5171C910491CCDB23D4615E080
:1032700029463046FFF77CFEB1460BE059460BF17C
:10328000010B1AF801000121FFF72EFE09F10100E0
:1032900000F0FF09C145F1DB681CC5B2A542E7DBC0
:1032A000BDE8F09F08B50121042000F03FFDA020FB
:1032B000ADF8000010208DF8030003208DF8020007
:1032C00069463D4800F076FAA0213B4800F01FFB1C
:1032D0004FF4487000F0AFF80021AE20FFF704FE75
:1032E00000210846FFF700FE00211020FFF7FCFD3B
:1032F00000214020FFF7F8FD0021B020FFF7F4FD8A
:1033000000218120FFF7F0FD0021FF20FFF7ECFDF9
:103310000021A120FFF7E8FD0021A620FFF7E4FD32
:103320000021A820FFF7E0FD00213F20FFF7DCFD92
:103330000021C820FFF7D8FD0021D320FFF7D4FDDE
:1033400000210846FFF7D0FD0021D520FFF7CCFD76
:1033500000218020FFF7C8FD0021D820FFF7C4FD21
:1033600000210520FFF7C0FD0021D920FFF7BCFD9B
:103370000021F120FFF7B8FD0021DA20FFF7B4FDAE
:1033800000211220FFF7B0FD0021DB20FFF7ACFD8C
:1033900000213020FFF7A8FD00218D20FFF7A4FDBC
:1033A00000211420FFF7A0FD0021AF20FFF79CFDB6
:1033B00008BD0000B40000200008014010B56FF007
:1033C000040000F078F92E4800682E49B0FBF1F0B7
:1033D0002D4908700846007800EB4001C1EBC01091
:1033E0004FF6FF7101EAC0002849088010BD014670
:1033F000254A12784A434FF0E0235A6100229A612D
:103400001A46126942F001021A6100BF4FF0E02231
:10341000106900F001021AB100F48032002AF5D0E0
:103420004FF0E022126922F001024FF0E0231A610E
:1034300000229A6170470146144A12884A434FF0AD
:10344000E0235A6100229A611A46126942F0010291
:103450001A6100BF4FF0E022106900F001021AB1BA
:1034600000F48032002AF5D04FF0E022126922F0F9
:1034700001024FF0E0231A6100229A6170470000B8
:103480007800002000127A007403002076030020E8
:1034900000BF704700BF524A128802F04002002A63
:1034A000F9D0C2B24E4B1B1D1A80704710B586B0C2
:1034B0000446012144F2040000F038FC4FF400708F
:1034C000ADF8140003208DF8160018208DF81700B1
:1034D00005A9444800F06EF94FF48060ADF814007F
:1034E00004208DF8170005A93E4800F063F9252057
:1034F0008DF8000003208DF801008DF802000120F6
:103500008DF80300684600F08CF801940020ADF8B7
:103510000800ADF80A00ADF80C00ADF810000C2062
:10352000ADF80E0001A92E4801F0B5FB012240F2D2
:1035300025512B4801F047FC0121294801F037FCB7
:1035400006B010BD10B540F22551254801F020FD10
:10355000002844D0224801F09BFCC4B222480088D5
:1035600000F4004000283AD11F48008800F4804051
:10357000D8B10A2C03D000201B4908802FE01A483C
:10358000008840F40040184908808021174802F064
:103590006CFA1548008820F440421549134802F09F
:1035A0004BFA00201049088019E00D2C06D10E4876
:1035B000008840F480400C49088010E00A480088E8
:1035C000C0F30D000A490C5407480088401C064906
:1035D000088008460088C72801DD0020088010BD4B
:1035E00000380140000801407C030020D30B00207C
:1035F000530C00200648804706480047FEE7FEE7D8
:10360000FEE7FEE7FEE7FEE7FEE7FEE7FEE7FEE792
:10361000FF0B00083101000831490143314A1160B4
:10362000704770B5002100230F22C47804B32D4CDD
:10363000246804F4E064C4F5E064210AC1F10403E1
:10364000CA40447804FA03F1847814402143090104
:10365000254C0678A155047804F01F050124AC40E0
:1036600005786D11AD0005F1E025C5F8004109E0D0
:10367000047804F01F050124AC401C4D0678761137
:1036800045F8264070BD1A4A0A400243154B1B1FDD
:103690001A60704739B1134A121D12680243114B68
:1036A0001B1D1A6006E00F4A121D126882430D4B63
:1036B0001B1D1A607047042808D14FF0E0210969EA
:1036C00041F004014FF0E022116107E04FF0E021EA
:1036D000096921F004014FF0E022116170470000F8
:1036E0000000FA050CED00E000E400E080E100E0FD
:1036F00080FFFF1F10B50446CC48844208D1012149
:10370000042000F02DFB0021042000F029FB46E0FE
:10371000C748844208D10121082000F021FB002184
:10372000082000F01DFB3AE0C248844208D1012184
:10373000102000F015FB0021102000F011FB2EE0FE
:10374000BD48844208D10121202000F009FB00215E
:10375000202000F005FB22E0B848844208D1012176
:10376000402000F0FDFA0021402000F0F9FA16E0B8
:10377000B348844208D10121802000F0F1FA0021F1
:10378000802000F0EDFA0AE0AE48844207D1012122
:10379000801500F0E5FA0021A01500F0E1FA10BD57
:1037A00010B50121084600F0DBFA0021012000F0ED
:1037B000D7FA10BD2DE9F041024600250026002071
:1037C00000230024002791F803C00CF00F0591F8A6
:1037D00003C00CF0100CBCF1000F03D091F802C034
:1037E0004CEA050591F800C0BCF1000F31D0146817
:1037F00000202BE04FF0010C0CFA00F3B1F800C0F0
:103800000CEA03069E4220D183004FF00F0C0CFA05
:1038100003F7BC4305FA03FC4CEA040491F803C027
:10382000BCF1280F06D14FF0010C0CFA00FCC2F8D5
:1038300014C00AE091F803C0BCF1480F05D14FF065
:10384000010C0CFA00FCC2F810C0401C0828D1D3AF
:103850001460B1F800C0BCF1FF0F34DD54680020E3
:103860002EE000F1080C4FF0010808FA0CF3B1F853
:1038700000C00CEA03069E4221D183004FF00F0CDA
:103880000CFA03F7BC4305FA03FC4CEA040491F874
:1038900003C0BCF1280F05D100F1080C08FA0CF8A0
:1038A000C2F8148091F803C0BCF1480F07D100F1B1
:1038B000080C4FF0010808FA0CF8C2F81080401C00
:1038C0000828CED35460BDE8F0814FF6FF71018027
:1038D000022181700421C170704702460020936864
:1038E0000B400BB1012000E00020704701468868C2
:1038F00080B2704702460020D3680B400BB1012014
:1039000000E0002070470146C86880B2704701613E
:103910007047416170470AB1016100E04161704741
:10392000C16070474FF480320A43826181618261D5
:1039300082698269704702460020434B18684FF63F
:103940008073184040EA021008433F4B18607047EC
:103950003E49C8617047F0B50A46002300240021A3
:10396000002500F00046B6F1004F02D1364EF16955
:1039700001E0354E7168C0F3034583B200F4401690
:10398000B6F5401F08D121F070612F4E766826F001
:1039900070662D4F7E6012E000F48016B6F5801F31
:1039A00006D1032606FA05F4A14341F0706106E052
:1039B000460D360103FA06F6B14341F0706122B1BB
:1039C000460D360103FA06F6314300F00046B6F123
:1039D000004F02D11C4EF16101E01B4E7160F0BD41
:1039E00030B500228B071C0F0F2303FA04F2164B8D
:1039F00008338C1053F824309343134C08348D1043
:103A000044F8253023468C1053F824308C07240FBB
:103A100000FA04F423430C4C08348D1044F825308C
:103A200030BD0A49DC3108607047000000080140E1
:103A3000000C01400010014000140140001801403A
:103A4000001C014000200140000001400000204215
:103A5000DF48006840F00100DD4908600846406822
:103A6000DC490840DA49486008460068DA490840FD
:103A7000D74908600846006820F48020086008469E
:103A8000406820F4FE0048604FF41F0088607047D3
:103A9000CF49096821F48031CD4A11601146096887
:103AA00021F480211160B0F5803F03D0B0F5802F64
:103AB0000ED106E0C649096841F48031C44A11605C
:103AC00007E0C349096841F4A021C14A116000E040
:103AD00000BF00BF704710B5014600220023002040
:103AE0004A11012A02D1BA4C236806E0022A02D107
:103AF000B74C236A01E0B64C636A01F01F0201244F
:103B000094401C400CB1012000E0002010BD38B5ED
:103B1000002000900024002500BF3120FFF7DBFFCC
:103B200005460098401C00900098B0F5A06F01D0A9
:103B3000002DF2D03120FFF7CEFF08B1012400E0C4
:103B40000024204638BD01460020A14A106820F01C
:103B5000F80040EAC10010607047A0490860704753
:103B6000024600209A4B586820F47C1042EA010378
:103B70001843974B5860704798490866704701464C
:103B80000020934A506820F00300084350607047BB
:103B90008F48406800F00C007047014600208C4AB6
:103BA000506820F0F0000843506070470146002044
:103BB000874A506820F4E06008435060704701462F
:103BC0000020834A506820F4605040EAC1005060F1
:103BD000704729B17E4A527A02437D4B5A7204E003
:103BE0007B4A527A82437A4B5A7270477B49D8316A
:103BF0000860704701460020754A506820F4404034
:103C00000843506070470021714A20321170704A99
:103C100082F82010012802D004280AD104E00121F2
:103C20006B4A2032117005E00521694A203211707B
:103C300000E000BF00BF70476949086070476449F1
:103C4000096A0143624A1162704765494439086054
:103C5000704730B500210022002400235C4D6D68C0
:103C600005F00C0121B1042905D0082923D105E074
:103C70005C4D056022E05B4D05601FE0544D6D68B2
:103C800005F47012524D6D6805F48034022505EB81
:103C900092421CB9544D554305600BE04C4D6D6884
:103CA00005F400351DB1504D5543056002E04D4D02
:103CB0005543056002E04B4D056000BF00BF444D19
:103CC0006D6805F0F0010909484D6B5C0568DD4041
:103CD00045603F4D6D6805F4E061090A434D6B5C3A
:103CE0004568DD4085603A4D6D6805F46051C90A4C
:103CF0003E4D6B5C4568DD40C560354D6D6805F433
:103D00004041890B3A4D6B5CC568B5FBF3F5056125
:103D100030BD29B12E4A526902432D4B5A6104E04D
:103D20002B4A526982432A4B5A61704729B1284A6B
:103D300092690243264B9A6104E0254A92698243C4
:103D4000234B9A61704729B1214AD2690243204B23
:103D5000DA6104E01E4AD26982431D4BDA61704782
:103D600029B11B4AD2680243194BDA6004E0184AB1
:103D7000D2688243164BDA60704729B1144A12693F
:103D80000243134B1A6104E0114A12698243104B3B
:103D90001A61704712494039086070470F49C8647A
:103DA00070470B49C87170470948406A40F08070FD
:103DB00007494862704701460020054A92680A4058
:103DC0000AB1012000E00020704701498872704765
:103DD000001002400000FFF8FFFFF6FE0000424224
:103DE0008004424200127A0000093D007E03002058
:103DF0008E03002010B50446FE48844208D10121FC
:103E0000C014FFF7ADFF0021E014FFF7A9FFC4E0E5
:103E1000B4F1804F08D101210846FFF7AEFF002121
:103E20000120FFF7AAFFB8E0F348844208D101213E
:103E30000220FFF7A2FF00210220FFF79EFFACE067
:103E4000EE48844208D101210420FFF796FF0021AB
:103E50000420FFF792FFA0E0E948844208D1012145
:103E60000820FFF78AFF00210820FFF786FF94E073
:103E7000E448844208D101211020FFF77EFF002191
:103E80001020FFF77AFF88E0DF48844208D1012143
:103E90002020FFF772FF00212020FFF76EFF7CE05B
:103EA000DA48844208D101214014FFF759FF00216C
:103EB0006014FFF755FF70E0D548844209D1012115
:103EC000C804FFF74DFF00214FF40020FFF748FF23
:103ED00063E0D048844209D101210805FFF740FF83
:103EE00000214FF48010FFF73BFF56E0CA488442A0
:103EF00009D101214805FFF733FF00214FF40010DD
:103F0000FFF72EFF49E0C548844208D10121402037
:103F1000FFF733FF00214020FFF72FFF3DE0C048AF
:103F2000844208D101218020FFF727FF0021802053
:103F3000FFF723FF31E0BB48844208D101218015FF
:103F4000FFF71BFF0021A015FFF717FF25E0B6487C
:103F5000844209D101210804FFF702FF00214FF438
:103F60008030FFF7FDFE18E0B048844209D10121FE
:103F70004804FFF7F5FE00214FF40030FFF7F0FE94
:103F80000BE0AB48844208D101218804FFF7E8FE2A
:103F900000214FF48020FFF7E3FE10BD00220288CD
:103FA000944B98420ED0994B98420BD0B0F1804F71
:103FB00008D0914B984205D0904B984202D0904B3C
:103FC000984204D14FF68F731A404B881A438D4B99
:103FD000984207D08C4B984204D04FF6FF431A40CA
:103FE000CB881A4302808B8883850B880385814B9D
:103FF00098420BD0854B984208D08B4B984205D005
:104000008A4B984202D08A4B984201D10B7A0386A0
:1040100001238382704770B5002400220023058CA1
:104020004FF6FE7635400584028C8388048B4FF66C
:104030008F752C40B51E2C400D882C43751E2A40D0
:104040000D892A434D882A436A4DA8420BD06F4DF3
:10405000A84208D0744DA84205D0744DA84202D0A1
:10406000734DA84213D14FF6F7752A404D892A4364
:104070004FF6FB752A408D882A434FF6FF652B408B
:104080004FF6FF552B408D892B43CD892B438380E1
:104090000483CD888586028470BD70B5002400221B
:1040A0000023058C4FF6EF7635400584028C83881B
:1040B000048B48F6FF752C404FF6FF452C400D88C9
:1040C0004FF6FF7606EA05252C434FF6DF752A40AA
:1040D0000D8906EA05152A434D8806EA05152A4387
:1040E000444DA84202D0494DA8421DD14FF67F75DC
:1040F0002A404D894FF6FF7606EA05152A434FF60A
:10410000BF752A408D8806EA05152A434FF6FF350C
:104110002B404FF2FF752B408D8906EA85052B4316
:10412000CD8906EA85052B4383800483CD880587E6
:10413000028470BD70B5002400220023058C4FF668
:10414000FF6635400584028C8388848B4FF68F751B
:104150002C404FF6FC752C400D882C434FF6FF5534
:104160002A400D894FF6FF7606EA05252A434D8839
:1041700006EA05252A431F4DA84202D0234DA84236
:104180001DD14FF2FF752A404D894FF6FF7606EAA2
:1041900005252A434FF6FF352A408D8806EA052576
:1041A0002A434EF6FF752B404DF6FF752B408D8947
:1041B00006EA05152B43CD8906EA05152B438380B6
:1041C0008483CD888587028470BD70B5002200236A
:1041D0000024058C4EF6FF7635400584038C8488D8
:1041E000828B48F6FF752A404FF6FF452A400D881E
:1041F00020E00000002C01400004004000080040C6
:10420000000C004000100040001400400034014049
:10421000004C014000500140005401400018004093
:10422000001C0040002000400040014000440140CC
:10423000004801404FF6FF7606EA05252A434DF671
:10424000FF752B400D8906EA05352B434D8806EA9C
:1042500005352B43FA4DA84202D0FA4DA84208D1A9
:104260004BF6FF752C408D894FF6FF7606EA8515D3
:104270002C4384808283CD88A0F84050038470BD95
:10428000828B4FF2FF331A408283828B4FF6FF738B
:1042900003EA01231A4382837047F0B50C461546A2
:1042A000002200210026078C4EF6FF7C07EA0C074F
:1042B0000784828B018C4FF6FF7707EA043640F6BD
:1042C000FF473A404FF6FF7707EA05273A434FF694
:1042D000FF7707EA03373A43D94FB8420ED0D94F98
:1042E000B8420BD0B0F1804F08D0D74FB84205D0BC
:1042F000D64FB84202D0D64FB84206D14DF6FF771E
:10430000394046F48057394305E047F6FF573940B6
:1043100044F48057394382830184F0BD828B4FF689
:10432000F3731A408283828B0A4382837047F0B50D
:104330000C461546002200210026078C4FF6FF6C24
:1043400007EA0C070784828B018C4FF6FF7707EA98
:1043500004264FF60C773A404FF6FF7707EA03172B
:104360002F433A43B64FB8420ED0B64FB8420BD0A7
:10437000B0F1804F08D0B44FB84205D0B34FB84227
:1043800002D0B34FB84206D14FF6FF57394046F43A
:104390008077394305E04FF2FF57394044F4807786
:1043A000394382830184F0BD028B4FF2FF331A4000
:1043B0000283028B4FF6FF7303EA01231A43028341
:1043C0007047F0B50C461546002200210026078CE8
:1043D0004FF6EF7C07EA0C070784028B018C4FF63F
:1043E000FF7707EA041640F6FF473A404FF6FF779B
:1043F00007EA03373A434FF6FF7707EA05273A43C0
:104400008F4FB8420ED08F4FB8420BD0B0F1804FD3
:1044100008D08D4FB84205D08C4FB84202D08C4F97
:10442000B84206D14FF6DF77394046F010073943DE
:1044300005E04FF65F77394044F0100739430283B7
:104440000184F0BD028B4FF6F3731A400283028B96
:104450000A4302837047F0B50C461546002200213E
:10446000068C4FF6FE773E400684028B018C4FF699
:104470000C7632407E1C06EA03162E433243704E01
:10448000B0420ED06F4EB0420BD0B0F1804F08D08A
:104490006D4EB04205D06D4EB04202D06C4EB0426F
:1044A00006D14FF6FD76314044F00106314305E078
:1044B0004FF6F576314044F0010631430283018422
:1044C000F0BD70B505460C465D4885420ED05D488E
:1044D00085420BD0B5F1804F08D05B48854205D0AE
:1044E0005A48854202D05A48854200D100E000BFB8
:1044F000208850B92389A28861882846FFF7ABFF3E
:10450000E1882846FFF79EFF25E0208804280AD18D
:104510002389A28861882846FFF753FFE18828464F
:10452000FFF742FF17E0208808280AD12389A288D4
:1045300061882846FFF7FBFEE1882846FFF7EEFE7C
:1045400009E02389A28861882846FFF7A6FEE18852
:104550002846FFF795FE70BD2DE9F04105460C4653
:1045600000260127608808B9022600E00026A088FE
:10457000012801D1022700E001272088A0B9238962
:10458000A28861882846FFF766FFE1882846FFF782
:1045900059FF23893A4631462846FFF712FFE18842
:1045A0002846FFF701FF13E02389A2886188284687
:1045B000FFF707FFE1882846FFF7F6FE23893A4612
:1045C00031462846FFF747FFE1882846FFF73AFFC4
:1045D000BDE8F0810A884B881A438B881A43CB8840
:1045E0001A430B891A434B891A438B891A43A0F843
:1045F000442070474FF6FF71818000210180C18007
:104600004180017270470021018041808180C1801A
:10461000018141818181C1817047002101804180F8
:10462000012181800021C18001817047002101802A
:1046300041808180C180018141818181704700007A
:10464000002C0140003401400004004000080040FC
:10465000000C004021B1028842F00102028004E017
:1046600002884FF6FE731A400280704731B1B0F8ED
:10467000442042F40042A0F8442005E0B0F8442071
:10468000C2F30E02A0F8442070471AB183890B438D
:10469000838102E083898B438381704781827047E5
:1046A00041EA0203A0F8483070471AB183890B43EE
:1046B000838102E083898B438381704701894FF6B0
:1046C000F8721140018170470A46002101894FF6B6
:1046D0008F73194011430181704730B504460D4670
:1046E00029462046FFF7F0FF208940F0070020818F
:1046F00030BD2DE9F04104460D4616461F46602D9B
:1047000006D13B46012231462046FFF75AFE05E01E
:104710003B46012231462046FFF79DFE29462046B2
:10472000FFF7D2FF208940F007002081BDE8F0812B
:1047300030B50C4600210189C9B24FF6FF7505EA74
:104740000325154325432943018130BD2DE9F0415F
:1047500005460E4617469846002443463A463146DB
:104760002846FFF7E5FF2C894FF6F870044044F027
:1047700007044FF68F70044044F070042C81BDE8AC
:10478000F081F0B504460D4616461F463B463246BC
:1047900029462046FFF7CCFF208940F48040208145
:1047A000F0BD0185828270470A46002101884FF6DC
:1047B0008F731940114301807047F0B50C461546C0
:1047C0001E460021002200230189028B038C4FF634
:1047D000F877394021434FF6FC473A4040F2011741
:1047E0003A434FF6DD773B404FF6FF7707EA06176F
:1047F0002F433B43018102830384F0BD0A4600211D
:10480000018B4FF68F7319401143018370470A469D
:104810000021018B48F6FF7319404FF6FF7303EA3E
:1048200002231943018370470A460021818B4FF60A
:104830008F7319401143818370470A460021818B91
:1048400048F6FF7319404FF6FF7303EA022319433A
:104850008183704721B1028842F08002028004E027
:1048600002884FF67F731A400280704721B1828818
:1048700042F00402828004E082884FF6FB731A4003
:104880008280704721B1828842F00802828004E071
:1048900082884FF6F7731A408280704721B1828870
:1048A00042F00102828004E082884FF6FE731A40D3
:1048B000828070470A460021018B4FF6F77319403A
:1048C0001143018370470A460021018B4FF2FF73A9
:1048D00019404FF6FF7303EA02231943018370471F
:1048E0000A460021818B4FF6F773194011438183EB
:1048F00070470A460021818B4FF2FF7319404FF633
:10490000FF7303EA02231943818370470A4600219B
:10491000018B4FF6FB7319401143018370470A4620
:104920000021018B4FF6FF3319404FF6FF7303EA66
:1049300002231943018370470A460021818B4FF6F9
:10494000FB7319401143818370470A460021818B14
:104950004FF6FF3319404FF6FF7303EA0223194362
:10496000818370470A460021018B4FF67F731940FF
:104970001143018370470A460021018BC1F30E01E8
:104980004FF6FF7303EA02231943018370470A4677
:104990000021818B4FF67F7319401143818370474B
:1049A0000A460021818BC1F30E014FF6FF7303EA23
:1049B00002231943818370470A460021018C4FF678
:1049C000FD7319401143018470470A460021018C90
:1049D0004FF6F77319401143018470470A460021CE
:1049E000018C4FF6DF7319404FF6FF7303EA021391
:1049F0001943018470470A460021018C4FF67F73EA
:104A000019404FF6FF7303EA0213194301847047FC
:104A10000A460021018C4FF6FF5319404FF6FF73F1
:104A200003EA02231943018470470A460021018CDE
:104A30004FF2FF7319404FF6FF7303EA0223194345
:104A4000018470470A460021018C4DF6FF7319401E
:104A50004FF6FF7303EA023319430184704730B500
:104A6000002301248C40A3B2048C9C430484048C56
:104A700002FA01F5ADB22C43048430BD30B50023F9
:104A800004248C40A3B2048C9C430484048C02FA5A
:104A900001F5ADB22C43048430BD70B5034600204F
:104AA00000241846183001258D40ACB21D8CA5435A
:104AB0001D8409B1082909D100EB6100056825F0C2
:104AC000700505600568154305600EE00D1FC5F310
:104AD0004E052844056825F4E045056005684FF655
:104AE000FF7606EA02263543056070BD21B10288D3
:104AF00042F00202028004E002884FF6FD731A4081
:104B00000280704721B1028842F00402028004E072
:104B100002884FF6FB731A400280704721B18288E9
:104B200042F08002828004E082884FF67F731A4050
:104B30008280704702884FF6F7731A40028002881D
:104B40000A430280704782884FF68F731A40828032
:104B500082880A438280704702894FF6F8731A40B0
:104B6000028102890A430281704702894FF67F73EE
:104B70001A40028102890A4302817047818470478A
:104B800081857047818670470187704781877047AC
:104B9000A0F84010704702884FF6FF431A40028089
:104BA00002880A43028070470146888E704701469A
:104BB000088F70470146888F70470146B1F8400062
:104BC00070470146888C70470146088D7047024641
:104BD0000020138A0B400BB1012000E00020704739
:104BE000CA430282704730B50246002000230024E9
:104BF000158A05EA0103958905EA010413B10CB190
:104C0000012000E0002030BDCA430282704700004E
:104C100010B50446FB48844209D101218803FFF7FF
:104C20009FF800214FF48040FFF79AF832E0F648F1
:104C3000844209D101214804FFF79FF800214FF475
:104C40000030FFF79AF825E0F048844209D10121AD
:104C50008804FFF792F800214FF48020FFF78DF8C9
:104C600018E0EB48844209D10121C804FFF785F818
:104C700000214FF40020FFF780F80BE0E548844264
:104C800008D101210805FFF778F800214FF48010C2
:104C9000FFF773F810BD2DE9F04786B005460E46C4
:104CA0000024A24600BFA1460027B08900B100BF82
:104CB0002F462C8A4CF6FF700440F08804432C8267
:104CC000AC894EF6F3100440B088318908437189ED
:104CD00008430443AC81AC8A4FF6FF400440B089DE
:104CE0000443AC8201A8FEF7B4FFC648874202D154
:104CF000DDF810A001E0DDF80CA0A88900F4004068
:104D000040B10AEBCA0000EB0A1031684900B0FB61
:104D1000F1F807E00AEBCA0000EB0A1031688900DD
:104D2000B0FBF1F86420B8FBF0F004012009642125
:104D300001FB1089A88900F4004040B1322000EB4B
:104D4000C900B0FBF1F000F00700044308E0322096
:104D500000EB09106421B0FBF1F000F00F000443F8
:104D60002C8106B0BDE8F0874FF416510160002198
:104D70008180C18001810C214181002181817047A6
:104D800010B502460020108A4FF2FF0318400B882E
:104D90004C8823438C882343CC88234318431082B8
:104DA00010BD0021018041808180C180704721B108
:104DB000828942F40052828104E082894DF6FF73B9
:104DC0001A4082817047F0B5034600240026002572
:104DD000002040F66A17B94200D100BF1846C1F35F
:104DE000421401F01F06012707FA06F5012C01D134
:104DF0000C3004E0022C01D1103000E014301AB164
:104E000007682F43076002E00768AF430760F0BD03
:104E10001AB1838A0B43838202E0838A8B438382A5
:104E20007047028A4FF6F0731A400282028A0A43E0
:104E30000282704782894FF2FF731A408281828911
:104E40000A438281704721B1828942F00202828145
:104E500004E082894FF6FD731A4082817047028A0E
:104E60004FF6DF731A400282028A0A4302827047B9
:104E700021B1028A42F48042028204E0028A4BF6A7
:104E8000FF731A4002827047C1F3080282807047A4
:104E900001468888C0F308007047818941F001010C
:104EA00081817047028BD2B20283028B42EA0122D7
:104EB00002837047028B02F47F420283028B0A4313
:104EC0000283704721B1828A42F02002828204E08C
:104ED000828A4FF6DF731A408282704721B1828A3C
:104EE00042F01002828204E0828A4FF6EF731A4089
:104EF0008282704721B1828A42F00802828204E0F5
:104F0000828A4FF6F7731A408282704721B18289F4
:104F100042F40042828103E08289C2F30E02828160
:104F2000704721B1828A42F40062828204E0828A60
:104F30004FF2FF731A4082827047828A4FF6FB73EA
:104F40001A408282828A0A438282704721B1828A11
:104F500042F00202828204E0828A4FF6FD731A4018
:104F60008282704702460020B1F5007F00D100BF69
:104F700013880B400BB1012000E00020704701F4C2
:104F80000072B2F5007F00D100BFCA4302807047B3
:104F900070B50246002400230025002040F66A1662
:104FA000B14200D100BFC1F3421501F01F03012639
:104FB00006FA03F3012D02D19689334006E0022D53
:104FC00002D1168A334001E0968A33400C12012642
:104FD00006FA04F41688344013B10CB1012000E045
:104FE000002070BD10B50022002340F66A14A142D3
:104FF00000D100BF0A1201249440A3B2DC43048014
:1050000010BD00000038014000440040004800404E
:10501000004C00400050004001460020FE4A10684D
:1050200000F03800084310607047FB49096821F020
:105030000801F94A1160114609680143116070477F
:10504000F549096821F01001F34A11601146096819
:10505000014311607047F148EF494860F0484860EB
:105060007047EE48EC494860ED4848607047EA48B0
:10507000006940F08000E84908617047E64800692F
:1050800040F08000E449086170470420E249C968A3
:1050900001F0010109B101200EE0DF49C96801F00A
:1050A000040109B1022007E0DB49C96801F01001E1
:1050B00009B1032000E00420704700B50246042334
:1050C000FFF7E3FF034603E0FFF7DFFF0346521E4F
:1050D000012B01D1002AF7D102B90523184600BDE2
:1050E00030B5044604254FF43020FFF7E6FF0546AF
:1050F000042D17D1C848006940F00200C649086174
:1051000008464461006940F0400008614FF43020D7
:10511000FFF7D3FF0546C048006941F6FD7108401E
:10512000BD490861284630BD10B504244FF4302035
:10513000FFF7C3FF0446042C16D1B748006940F0BE
:105140000400B54908610846006940F04000086164
:105150004FF43020FFF7B1FF0446AF48006941F635
:10516000FB710840AC490861204610BD00B50246FD
:105170000423FFF78AFF034603E0FFF786FF034699
:10518000521E012B01D1002AF7D102B9052318467E
:1051900000BD10B504244FF43020FFF7E7FF0446AC
:1051A000042C16D19C48006940F004009A4908611B
:1051B0000846006940F0400008614FF43020FFF7D6
:1051C000D5FF04469448006941F6FB7108409249B6
:1051D0000861204610BD00208F49C96901F0020115
:1051E00009B1012000E00020704730B5A525042456
:1051F000FFF7F1FF00B100254FF43020FFF75DFF0E
:105200000446042C3AD185488349886084488860E4
:105210000846006940F0200008610846006940F037
:10522000400008614FF43020FFF747FF0446042C8C
:105230001BD17948006941F6DF7108407649086161
:105240000846006940F01000086176480580E002D9
:10525000FFF733FF0446052C10D06F48006941F674
:10526000EF7108406C49086108E0052C06D06A48D7
:10527000006941F6EF71084067490861204630BD7A
:1052800078B506460C46042500200090E802FFF79A
:1052900014FF0546042D24D15F48006940F0010049
:1052A0005D4908613480E802FFF707FF0546042DD9
:1052B00010D1B01C0090200C00990880E802FFF784
:1052C000FCFE05465448006941F6FE71084052490B
:1052D000086106E05048006941F6FE7108404E49F9
:1052E0000861284678BD70B504460D460426F002D4
:1052F000FFF7E3FE0646042E11D14748006940F04F
:105300000100454908612580F002FFF7D6FE0646F8
:105310004148006941F6FE7108403F490861304646
:1053200070BD70B505460E460424E002FFF7C5FEC9
:105330000446042C17D139483749886038488860BA
:105340000846006940F0100008612E80E002FFF777
:10535000B4FE0446052C06D02F48006941F6EF71D3
:1053600008402D490861204670BD2DE9F0430446F0
:105370004FF6FF763746B046B1460425E443E6B221
:10538000C4F30727C4F307484FEA1469E802FFF79C
:1053900094FE0546042D49D120481F4988602048C5
:1053A00088600846006940F010000861FF2E06D0B2
:1053B0001C4808300680E802FFF77FFE0546042DF2
:1053C00008D1FF2F06D017480A300780E802FFF700
:1053D00074FE0546042D0AD1B8F1FF0F07D011481D
:1053E0000C30A0F80080E802FFF767FE0546042DA8
:1053F0000AD1B9F1FF0F07D00A480E30A0F800908B
:10540000E802FFF75AFE0546052D0FD00248006955
:1054100041F6EF71084007E0002002402301674594
:10542000AB89EFCD00F8FF1F664908612846BDE84B
:10543000F08330B5054604244FF43020FFF73DFEDD
:105440000446042C41D160485E4988605F4888600A
:105450000846006940F0200008610846006940F0F5
:10546000400008614FF43020FFF727FE0446042C6B
:1054700022D15448006941F6DF7108405149086162
:105480000846006940F0100008611DB10020504935
:10549000088002E0A5204E4908804FF43020FFF735
:1054A0000CFE0446052C10D04648006941F6EF7109
:1054B00008404449086108E0052C06D041480069CD
:1054C00041F6DF7108403F490861204630BDF0B524
:1054D00005460E46174604243B483A4988603B4837
:1054E0008860E002FFF7E9FD0446042C19D1354835
:1054F000006940F010003349086147F0F80030437C
:1055000028433349891C0880E002FFF7D6FD044692
:10551000052C06D02B48006941F6EF710840294957
:1055200008612046F0BD2748C069800870472548BB
:10553000006A704700202349096801F0200109B181
:10554000012000E00020704729B11E4A1269024381
:105550001C4B1A6104E01B4A12698243194B1A6101
:10556000704701460020012908D1164AD26902F08D
:1055700001020AB1012008E0002006E0114AD268C9
:105580000A400AB1012000E0002070470D49C860C0
:10559000704704200B49C96801F0010109B10120DD
:1055A0000EE00849C96801F0040109B1022007E0D2
:1055B0000449C96801F0100109B1032000E004208A
:1055C000704700000020024023016745AB89EFCD02
:1055D00000F8FF1F10B50446FA48844208D10121A3
:1055E0004015FEF7BDFB00216015FEF7B9FB17E083
:1055F000F548844208D101210015FEF7B1FB0021D6
:105600002015FEF7ADFB0BE0F048844208D10121E4
:10561000C803FEF7A5FB00214FF40040FEF7A0FBF6
:1056200010BD30B50246002000235068E84C2040F1
:105630000D790C6844EA0524204350609068E54CDD
:105640002040D1E902542C434D7944EA45042043DB
:105650009060D06A20F470000C7C641EE4B2234396
:1056600040EA0350D06230BD0021016001714171F8
:105670008160C16001210174704721B1826842F0EC
:105680000102826003E0826822F0010282607047BA
:1056900021B1826842F48072826003E0826822F461
:1056A00080728260704710B50023CBB21AB1446893
:1056B0001C43446002E044689C43446010BD816820
:1056C00041F0080181607047014600208A6802F0BD
:1056D00008020AB1012000E000207047816841F013
:1056E000040181607047014600208A6802F00402CC
:1056F0000AB1012000E00020704721B1826842F425
:10570000A002826003E0826822F4A00282607047F7
:10571000014600208A6802F480020AB1012000E0FC
:105720000020704710B50A4600210023416821F48B
:105730006041531E41EA4331416010BD21B14268CE
:1057400042F40062426003E0426822F40062426078
:105750007047F0B504460D4600200021092D11DDEB
:10576000E068A5F10A0606EB4607072606FA07F1E8
:105770008843A5F10A0606EB460603FA06F108433C
:10578000E0600CE0206905EB4507072606FA07F103
:10579000884305EB450603FA06F108432061072A12
:1057A0000FDA606B561E06EB86071F2606FA07F116
:1057B0008843561E06EB860605FA06F10843606329
:1057C00022E00D2A0FDA206BD61F06EB86071F2674
:1057D00006FA07F18843D61F06EB860605FA06F19E
:1057E0000843206310E0E06AA2F10D0606EB86078D
:1057F0001F2606FA07F18843A2F10D0606EB86067E
:1058000005FA06F10843E062F0BD21B1826842F476
:105810008012826003E0826822F480128260704706
:105820000146C86C80B2704766484C3000687047CB
:1058300021B1426842F48062426003E0426822F48F
:1058400080624260704721B1426842F480524260F7
:1058500003E0426822F48052426070470A46002109
:10586000816821F4E04111438160704721B1826871
:1058700042F40042826003E0826822F400428260C7
:10588000704721B1826842F40212826003E08268AC
:1058900022F4021282607047014600208A6802F4F6
:1058A00000120AB1012000E000207047F0B5044664
:1058B0001546002000220026092911DDE068A1F12B
:1058C0000A0707EB470C072707FA0CF29043A1F1F0
:1058D0000A0707EB470703FA07F21043E0600CE002
:1058E000206901EB410C072707FA0CF2904301EB0A
:1058F000410703FA07F210432061A06BC0F3015681
:10590000EF1C06F1010CA7EB0C0707EB870C1F2718
:1059100007FA0CF29043EF1C06F1010CA7EB0C0701
:1059200007EB870701FA07F21043A063F0BD10B53B
:105930000A4600210023816B21F44011531E41EAE5
:105940000351816310BD08B5002300930090009BB4
:105950000B440093009B1A6008BD08B50246002066
:105960000090009201F12800009B184400900098DC
:10597000006880B208BD0A4600214168164B1940F4
:105980001143416070474162826270470A460021BC
:10599000416821F01F0111434160704740B109493E
:1059A0000831096841F40001064A0832116007E035
:1059B00004490831096821F40001024A08321160E3
:1059C000704700000024014000280140003C0140D5
:1059D000FFFEF0FFFDF7F1FFFFFD3FFF0246002055
:1059E00013680B400BB1012000E000207047CA4350
:1059F0000260704770B502460020002300240B129D
:105A00005568CEB205EA060415681D4015B10CB103
:105A1000012000E0002070BD00220A12D343036081
:105A20007047A0F14101192900D8203070470000CB
:105A300000487047A47C000840EA01039B0703D09C
:105A400009E008C9121F08C0042AFAD203E011F8BD
:105A5000013B00F8013B521EF9D27047D2B201E07F
:105A600000F8012B491EFBD270470022F6E710B563
:105A700013460A4604461946FFF7F0FF204610BDBC
:105A8000421C10F8011B0029FBD1801A704710B589
:105A9000002200E0521C835C8C5CA34201D1002BED
:105AA000F8D1D8B2E1B2401A10BD034611F8012B6B
:105AB00000F8012B002AF9D11846704730B5054689
:105AC0000020034600E05B1C934205D2EC5CC85CFE
:105AD000201A01D1002CF6D130BD00000FB400B562
